:1000000055C000007AC0000078C0000076C0000033
:1000100074C0000072C0000070C000006EC000001C
:100020006CC000000C94830968C0000066C000002A
:1000300064C0000004C6000060C000005EC0000094
:100040005CC000005AC0000058C0000056C000004C
:1000500054C0000052C0000050C000004EC000005C
:100060004CC000004AC00000000000000000001F5B
:100070001F1F1F1F1F1F4C31362063646567726589
:100080006734003E6733323E3E633332007620F6FB
:100090002EF4005049440033F720526F626F740011
:1000A00020506F6C6F6C75003F0A400A11241FBE10
:1000B000CFEFD8E0DEBFCDBF12E0A0E0B1E0EEE9C7
:1000C000F5E202C005900D92A43AB107D9F713E00A
:1000D000A4EAB2E001C01D92AB31B107E1F710E034
:1000E000CAEAD0E004C02297FE010E940210C83A7A
:1000F000D107C9F73CD10C94C31282CF8091000183
:100100008F5F80930001089560E088E690E0B8D6A4
:1001100061E089E690E0B4D662E08AE690E0B0D68D
:1001200063E08BE690E0ACD664E08CE690E0A8D685
:1001300065E08DE690E0A4D666E08EE690E0A0D67D
:100140000AC7AAE0B0E0E7EAF0E00C94C90F8C011E
:10015000D12C8AE0C82E95E6E92EF12CEFE4F2E0EE
:10016000DE0111968C2D01900D928A95E1F7F80130
:10017000819191918F01B7010E945A0F81E090E027
:100180008C0F9D1F680F791FFB0180817BD6D39454
:10019000F5E0DF12E3CF2A96E8E00C94E50FAAE041
:1001A000B0E0E5EDF0E00C94CB0F80ED97E00E941D
:1001B0003D0AAADF80EA90E0F2D661E080E064D7F1
:1001C00087E990E0ECD683E890E0A9D588EE93E04B
:1001D0000E94CA09C0D683E990E0E1D661E080E0E0
:1001E00053D78DE890E0DBD688EE93E00E94CA09F1
:1001F00080E10E947909811115C064D28C01ABD6CF
:10020000B801882777FD8095982F1FD789E592E060
:10021000B7D661E080E038D78CE592E0B1D684E6CD
:1002200090E0E4CF80E10E94690995D684E692E0EF
:10023000A7D661E080E028D78CE692E0A1D688EED0
:1002400093E00E94CA0908E710E080E10E94790962
:1002500081112CC080D685E792E092D660E085E0DF
:1002600013D7B801882777FD8095982FEED661E0E7
:1002700080E00AD78BE792E083D680E20E9479097A
:10028000882329F00F3F110514F40B5F1F4F82E004
:100290000E947909882329F00B30110514F00550CC
:1002A000110986E990E00E94CA09CFCF54D683E8AD
:1002B00092E066D661E080E0E7D687E892E060D61B
:1002C00080E10E94690988EE93E00E94CA092CEE41
:1002D000E22EFF24FA9488E2E816F10428F068ED93
:1002E0007FEF88E290E004C068E270E088ED9FEF65
:1002F000C5D781E00E94030A84E190E00E94CA0908
:100300008FEFE81AF80A8CE3E816F10421F760E0B1
:1003100070E080E090E0B2D780E1EBD7811116C0A9
:1003200061E0CE0101960E94070A7C0114D6B70154
:1003300080E090E08AD661E080E0A6D6CE0101960A
:1003400000DF84E690E00E94CA09E6CF80E1C1D7D1
:1003500002D680E992E014D686E790E0E0D4D1D4CA
:100360008111FDCFC8012A96E6E00C94E70FA1E1C8
:10037000B0E0EDEBF1E00C94BF0F11DF8C01893799
:1003800091058CF087399105BCF0893C9105ECF022
:10039000C12CD12CE12C70E4F72E8D3D910504F594
:1003A00026E030E01FC0C12CD12C60E8E62E6FE3C0
:1003B000F62E84E190E011C0C12CD12C50E8E52E3E
:1003C0005FE3F52E2FE030E00DC0C12CD12C40E8CA
:1003D000E42E4FE3F42E8AE090E09C878B8704C0E4
:1003E00025E030E03C872B871D86812C912C540121
:1003F0001F861E8688279927801B910B998B888BD7
:100400009D859F35B8F47DD4811115C02D85822F2F
:1004100090E0FC01EE0FFF1FEF5FFE4F60817181E6
:10042000FC01E154FE4F4FE0808159D43D853F5F90
:100430003D8701C01D868FD584E992E0A1D561E09A
:1004400080E022D68AE992E09BD561E0CE01019658
:10045000DED7805D97401C01AA2797FDA095BA2F93
:10046000880E991EAA1EBB1EC1016B857C850E9449
:100470006E0F2B01662457FC6094762CC501B401E5
:1004800028E93AE340E050E00E94A30F420E531ED9
:10049000641E751EC301B2010E94AD102B013C0108
:1004A000B1018E859F85681B790B882777FD809524
:1004B000982F0E94AD10A70196010E9439119B014F
:1004C000AC01C301B2010E9416100E947A100617F7
:1004D00017070CF4B801CB01288939896217730713
:1004E0000CF4C901B80197FF03C0800F911F03C02E
:1004F000681B790BC801C2D63F862E8681CF882320
:1005000021F480917C008F7D03C080917C0080620B
:1005100080937C00089580917C0090E025E0959583
:1005200087952A95E1F78170089580917A0090E08F
:1005300036E0959587953A95E1F781700895EBDF60
:10054000882321F02091790030E004C020917800C8
:1005500030917900C90108958032B0F497E8909302
:100560007A0090917C00292F2064662311F0906C12
:1005700002C0922F9F77907E982B90937C00809161
:100580007A00806480937A000895A0E0B0E0EBECFC
:10059000F2E00C94C90F6B0160E0DEDFC6DF882358
:1005A000E9F7E601EE24FF24870180917A00806458
:1005B00080937A00BADF8823E9F7C1DFA0E0B0E0DA
:1005C000E80EF91E0A1F1B1F219779F7C6019695A1
:1005D000879520E4C216D10440F48E0D9F1D6C2D2A
:1005E00070E00E945A0FCB010DC0BC0180E090E08A
:1005F0006E0D7F1D801F911F960140E050E00E940C
:10060000810FC901CDB7DEB7E8E00C94E50FA3E098
:10061000B0E0EDE0F3E00C94CE0FBC0180E090E0A0
:1006200020911E0230911F0240E050E00E943F0FD7
:10063000182F69837A839B836EDF69817A819B811E
:10064000882371F09B01412F592FCA01B9016158CC
:100650007F4F8F4F9F4F2FEF30E040E050E00DC0B5
:100660009B01412F592FCA01B90161507E4F8F4F15
:100670009F4F2FEF33E040E050E00E94810FC9010F
:100680002396E3E00C94EA0F80DFC1CF1F93CF9352
:10069000DF9341DF182F80E032DF86E06AE070E010
:1006A000F3DFEC01812F2BDF9E01220F331F2C0F74
:1006B0003D1F2F5F3F4F36952795C901DF91CF91A1
:1006C0001F910895E3CF08959091A902E091A502AA
:1006D000F091A602992311F0849101C08081282F06
:1006E00021542A3110F4805E0895803271F42091F3
:1006F000A5023091A602A9014F5F5F4F5093A60259
:100700004093A5022115310509F70895EF92FF9254
:10071000CF93DF93D9DFC0E0D0E01AC09E01220F53
:10072000331F93E0CC0FDD1F9A95E1F7C20FD31F63
:10073000992787FD9095C80FD91FE0978091A50252
:100740009091A60201969093A6028093A502BCDF29
:10075000982F90539A3010F3CE01DF91CF91FF90F4
:10076000EF90089510926F0083E28093800081E102
:10077000809381001092820080E197E2909389003B
:100780008093880010928B0010928A00229A7894AD
:1007900008958091A402882321F481E08093A4022B
:1007A000E1CF0895A0E0B0E0E8EDF3E00C94C50FD0
:1007B0008C015B01E42EEDDF1092200217FF04C0D4
:1007C0001F77AAE0FA2E02C0FF24F394C0908100A4
:1007D000DD2428EFC222DD2488EC3F2D389FC001A4
:1007E000112480179107D8F4E80167E20131160758
:1007F00010F0C0E1D7E2BE017695679580E090E009
:100800006058794687469F4F9E0140E050E00E9425
:10081000810F890181E090E0C82AD92A2CC098E292
:10082000F99E902D112480E0892EE4014E01982E2E
:10083000E4018016910608F4E801BE0176956795FB
:100840009E0140E050E08F2D8A3039F480E090E046
:10085000605E734481449F4F06C080E090E0605327
:100860007D4E8C4E9F4F0E94810F890152E0852E54
:10087000912CC828D9282F2D2A3039F4CE0105967D
:100880006AE070E00E945A0FEB0133E0C83ED307E4
:1008900079F0BE0180E090E0950140E050E00E94D8
:1008A0003F0F28EE33E040E050E00E94A30F01C06C
:1008B000950110926F00C0928100109389000093FF
:1008C000880040918800509189006E2D603108F0B9
:1008D0006FE080E190E0861B9109BA0102C0769535
:1008E00067958A95E2F770938B0060938A00309346
:1008F000AC022093AB0286B38FEF86BB81E080937E
:100900006F00CDB7DEB7ECE00C94E10F9B018F3F99
:1009100011F0442329F488EE93E0B90140E049C086
:10092000813130F0582F5051503618F05FE501C03A
:1009300050E0852F6CE00E944E0FA82FB0E0E4EF4E
:10094000FFEFAE9FB001AF9F700DBE9F700D1124E1
:10095000650F711D6C30710540F4FB01EE0FFF1F38
:10096000E65DFD4F6081718102C060E070E087301C
:1009700081F0082E02C0660F771F0A94E2F78230DA
:1009800028F0CB0105966AE070E00CC0605070481A
:100990000BC0CB01B6E0880F991FBA95E1F702961C
:1009A00065E070E00E945A0F403108F04FE0CB0143
:1009B000B901F8CEA0E0B0E0E0EEF4E00C94C40F92
:1009C000B09021028091A702882359F06091A8027B
:1009D000662339F08FEF70E040E098DF1092A802B4
:1009E00029C1C0ECDDE5AA24A39414E0712E00ED2A
:1009F00017E0B4E0EB2EF12CA4EFCA2EA1E0DA2E22
:100A0000FFE08F2E912C60DE2091A5023091A6028E
:100A10002F5F3F4F3093A6022093A5028636F1F157
:100A20008736CCF4823609F4AAC083367CF48E3340
:100A300049F18F333CF4813209F482C08C3309F0E0
:100A400096C022C0813609F092C096C0843601F16A
:100A500085360CF51BC08F3609F445C0803744F449
:100A60008C3611F18D3659F1873609F080C019C0E6
:100A7000843709F441C0863709F45CC0823709F035
:100A800076C036C0B394BFCFBA94BDCFEE2432C087
:100A9000EE2482E076C0EE2484E073C0EE2485E08C
:100AA00070C0EE2487E06DC031DEBC01909323025C
:100AB00080932202809124029091250234C004DEAA
:100AC0008C3619F41092A70204C0A092A7021092CB
:100AD000A8028091A5029091A60201969093A60289
:100AE0008093A50290CF12DEB82E809321028BCF87
:100AF000EE24E39480E045C009DEBC01CE010E94F3
:100B00005A0FCB01880F991F53E0660F771F5A9534
:100B1000E1F7860F971F909325028093240260913E
:100B20002202709123020E945A0F70932702609351
:100B3000260269CFEBDD909329028093280263CFD0
:100B4000709221021093250200932402F092230256
:100B5000E0922202D0922702C092260290922902AD
:100B6000809228021092A70244E0B42E4CCF10923B
:100B7000A6021092A5025EC0EE2489E002C0EE2417
:100B80008BE09CE0B99EB02C1124B80E9DDD8B3219
:100B900011F08332B1F48091A5029091A6020196E2
:100BA0009093A6028093A502B394F0CF8091A50202
:100BB0009091A60201969093A6028093A502BA9402
:100BC00083DD8D3299F3C0912602D09127028153A3
:100BD000883050F4C0912402D091250297DDBC01E9
:100BE000CE010E945A0FEB018E010BC08091A5022D
:100BF0009091A60201969093A6028093A502C00F41
:100C0000D11F1695079560DD8E3281F38091A70282
:100C1000882339F0CE01969587958093A802C81B4A
:100C2000D109EE2011F0BB24BA948B2DBE01409166
:100C300028026CDECDB7DEB7EDE00C94E00F1F921A
:100C40000F920FB60F9211242F933F934F935F9300
:100C50006F937F938F939F93AF93BF93EF93FF9384
:100C60008091AB029091AC029C01215030403093B6
:100C7000AC022093AB02009709F510926F007894B4
:100C800080918100887F81608093810080E197E27C
:100C9000909389008093880010928B0010928A00B4
:100CA00081E0809320028091A5029091A602009796
:100CB00029F08091AA02882309F47CDEFF91EF914C
:100CC000BF91AF919F918F917F916F915F914F9164
:100CD0003F912F910F900FBE0F901F90189516CE39
:100CE000089580912002882351F081E02091A5028F
:100CF0003091A6022115310519F480E0089581E0B4
:100D00000895EFCF089510926F009093A6028093FC
:100D1000A50281E08093A9021092A8024BCEF3CFE6
:100D2000089581E090E06F9364E06A95F1F76F9128
:100D30000197C9F708950F931F93CF93DF931AB1CB
:100D400057985A98289AC0E0D0E0EBDF5C9AE9DF28
:100D500009B15C98E6DF5C9AE4DF5C9807FF11C09C
:100D600024969E0140E050E08091B1029091B20241
:100D7000A091B302B091B402281739074A075B0764
:100D800020F31AB9DF91CF911F910F91089565B1AA
:100D900090E0AC0141705070440F551F9C012670CB
:100DA000307053E0220F331F5A95E1F7242B6D7CEE
:100DB000262B25B92BB18870907034E0880F991FCD
:100DC0003A95E1F72F77282B2BB95C9AAADF5C982C
:100DD000A8CFA2E0B0E0EFEEF6E00C94CA0F182F17
:100DE0004A83698384D0A7DFF4B005B1DAB0EBB0F1
:100DF000289869814A81662311F05A9A01C05A984D
:100E000084B1826384B9579A413021F0812F829551
:100E10008F70BDDF812F8F70BADFDAB8EBB8F4B80E
:100E200005B92296E7E00C94E60F60E042E0D1CFEE
:100E300061E042E0CECFEF92FF921F93DF93CF931A
:100E40000F92CDB7DEB7660F660F660F482F592F8A
:100E50007A0110E0812F860F80646983E6DFF70155
:100E60008491E6DF1F5F0894E11CF11C6981183052
:100E700089F70F90CF91DF911F91FF90EF90089528
:100E8000DACF0895D5CF089560E041E0A2CF80E1A8
:100E900097E2A0E0B0E08093B1029093B202A093F9
:100EA000B302B093B402529A209A549A8EE190E021
:100EB00071D283E0E9DF86E090E06CD283E0E4DF8A
:100EC00082E090E067D283E0DFDF82E090E062D2F0
:100ED00082E0DADF82E090E05DD288E2A6DF88E09F
:100EE000A4DF81E0A2DF86E0A0DF8CE09ECF8091CE
:100EF000B502882321F481E08093B502C8CF08951C
:100F000081E093DF8091AD029091AE02009711F1E4
:100F1000A0E0B0E208C0E091AD02F091AE02E20FB5
:100F2000F31FB083AF5F2A2F30E08091420290E040
:100F300001976091430270E0869FA001879F500D4A
:100F4000969F500D1124241735072CF31092B002F0
:100F50001092AF020895D4CF0895EF92FF92CF93ED
:100F6000DF93E82EE7017E01F92EE70101C060DF83
:100F700089918823E1F7DF91CF91FF90EF90089559
:100F8000ECCF0895CF93DF93EC0102C051DF21969F
:100F9000FE0184918823D1F7DF91CF910895F2CF9C
:100FA0000895AAE0B0E0E6EDF7E0F1C79B01AC01DF
:100FB0001AE0EAE0CE2ED12CE12CF12C5E0108944F
:100FC000A11CB11C022FCA01B901A701960199D732
:100FD0001150F501E10FF11D005D922F990F892F3E
:100FE000880F880F890F081B0083211531054105E3
:100FF000510541F707C0F601E10FF11D808118DFAF
:101000001F5F04C06E010894C11CD11C1A3098F3F4
:101010002A96EAE0D8C7EF92FF920F931F937B01C5
:101020008C0197FF0AC010950095F094E094E11CA4
:10103000F11C011D111D8DE2FBDEC801B701B1DFFE
:101040001F910F91FF90EF900895E5CF0895A5E0CF
:10105000B0E0ECE2F8E0A2C7182F80E8898380ECCA
:101060008A8384E98B8384ED8C83FE01E60FF11D76
:101070008181810F6D83D9DE1093B0026D81609301
:10108000AF022596E3E0A6C7E2CF0895FC011182E6
:10109000108213821282158214821682683068F4DC
:1010A00089E290E0918380838BE290E09383828356
:1010B0008AE290E09583848311C06E30C0F483E2AD
:1010C00090E09183808385E290E09383828384E241
:1010D00090E09583848370E06850704081E090E0F8
:1010E00002C0880F991F6A95E2F7868308956531DB
:1010F000B8F486E290E09183808388E290E0938365
:10110000828387E290E09583848370E06E50704024
:1011100081E090E002C0880F991F6A95E2F786830C
:101120000895FC01A481B5818681662321F09C91FC
:10113000982B9C9308959C91809589238C93089576
:10114000FC016F3F31F4A281B3818C919681892794
:101150000CC0A281B3818681662321F09C91982BDB
:101160009C9308959C91809589238C930895A7E082
:10117000B0E0ECEBF8E010C7282FF62E8E010F5FE1
:101180001F4FC801622F82DFC8016F2DD9DFC80150
:1011900061E0C7DF2796E5E01BC7E0EBF0E083EFF7
:1011A0008083808184BDE1EBF0E082E080838081F8
:1011B00085BDE4EBF0E010828081E3EBF0E080831A
:1011C000808188BD88B587BD86E060E0D0DF85E09E
:1011D00060E0CDDF8BE060E0CADF83E060E0C7CF96
:1011E0008091B602882321F481E08093B602D5CFA6
:1011F0000895CF93DF93EC01F3DFD7FF05C0D095BF
:10120000C195DF4F81E001C080E0CF3FD10519F0EB
:1012100014F0CFEFD0E0882319F018BCC7BD02C08E
:10122000C8BD17BCDF91CF910895CF93DF93EC0138
:10123000D7DFD7FF05C0D095C195DF4F81E001C052
:1012400080E0CF3FD10519F014F0CFEFD0E0882334
:1012500029F01092B400C093B30004C0C093B4004E
:101260001092B300DF91CF910895CF93DF93EB01FC
:10127000C0DFCE01DADFDF91CF910895F6CF089578
:1012800084B18D7C84B985B1826385B985E090E0B5
:101290006F9364E06A95F1F76F910197C9F708952C
:1012A0008091B702882321F481E08093B702E8CFD0
:1012B00008951F93182FF4DF83B18123E9F38AE0A7
:1012C00090E068D083B18123B9F383B181231F916A
:1012D0000895EFCF0895A1E0B0E0E0E7F9E05FC640
:1012E0008983DEDF93B19095898189232196E2E09D
:1012F00072C6F1CF08956F9364E06A95F1F76F912C
:101300000197C9F708952F928F939F932FB68091DD
:10131000C5029091C60201968093C5029093C602C1
:1013200090E08091C702891F8093C7029091CD02FF
:101330009C5F9093CD028091CC0280519742C0F087
:101340009093CD028093CC028091C8029091C90203
:1013500001968093C8029093C90290E08091CA02DE
:10136000891F8093CA028091CB02891F8093CB0290
:101370002FBE9F918F912F901895CF93DF93EC0103
:1013800004C088EE93E0B7DF21972097D1F7DF9173
:10139000CF910895F2CF0895E0E7F0E080818E7F4D
:1013A0008083A0EBB0E08C9183608C93A1EBB0E0E4
:1013B0008C91807F8C938C9182608C93B89A808181
:1013C00081608083789408958091CE02882321F4EF
:1013D00081E08093CE02E0CF0895F6DFE0E7F0E011
:1013E00080818E7F80831092C8021092C902109271
:1013F000CA021092CB021092CD021092CC028081D0
:10140000816080830895682F8FEC92E0FCC49C017A
:10141000462F8FEC92E0B90120E05EC30F93DF937B
:10142000CF9300D000D00F92CDB7DEB79C01962F9E
:10143000DE011196E4E4F2E085E001900D92815026
:10144000E1F7BE016F5F7F4F992329F08FEC92E0A7
:1014500045E00FEF04C08FEC92E045E003E16CD073
:101460008FEC92E042D0B9DF0F900F900F900F9069
:101470000F90CF91DF910F91089560E0CFCF089545
:101480008FEC92E0E2C46F9364E06A95F1F76F919C
:101490000197C9F70895A7E0B0E0E0E5FAE07DC55F
:1014A0008C01FC0111821082138212821582148237
:1014B00017821682613118F080E1808702C0FC013A
:1014C0006087F801208BCE010196642FDFDD8F81CC
:1014D000F80181878B819C81938782878D819E8192
:1014E000958784872796E4E074C5FC01A485B585BB
:1014F000109771F08C919185892B8C93A285B3857F
:101500009C918185809589238C9388EC90E0BBCF5A
:101510000895FC01A485B585109769F08C9191859B
:10152000892B8C93A285B3858C919185892B8C9383
:1015300088EC90E0A8CF0895A7E0B0E0E1EAFAE0F7
:101540001EC57C011B01642F3901402F20E0A3DF61
:1015500097012F5B3F4FF9011082D701AE5BBF4F60
:101560001C92C7018D5B9F4FFC011082F7017786AB
:10157000668666242E010894411C511C6C015D0195
:10158000490128C0062D10E0F101E00FF11FC20152
:1015900060817CDD2F81F701E00FF11F218B8981B4
:1015A0009A81F801EE0FFF1FEE0DFF1D92A381A39C
:1015B0008332910511F4F40109C08632910511F4CA
:1015C000F50104C08932910521F4F6018081822B56
:1015D00080836394F70180856816A0F22796E2E184
:1015E000EAC4A0E0B0E0E6EFFAE0CEC4EC015B01B3
:1015F000FC01EF5BFF4F9080FC01EE5BFF4F8080B2
:10160000FC01ED5BFF4F708080E009C0E82FF0E047
:10161000EE0FFF1FEA0DFB1D118210828F5F988570
:101620008917A0F384B121E4E22EF12CEC0EFD1E0B
:10163000D7019C91892B84B987B18E010E5B1F4F16
:10164000F8019081892B87B98AB193E4C92ED12CF6
:10165000CC0EDD1ED6019C91892B8AB985B1F7018C
:101660009081892B85B988B1D8019C91892B88B943
:101670008BB1F6019081892B8BB98AE090E003DF72
:1016800094B1D7018C918095892384B997B1F801E1
:1016900080818095892387B99AB1D6018C918095F4
:1016A00089238AB995B1F70180818095892385B90D
:1016B00098B1D8018C918095892388B99BB1F601A6
:1016C0008081809589238BB9C090B000E090B100F3
:1016D0008091B00083608093B00082E08093B1007D
:1016E0000091B20080E090E039C02091B200201B50
:1016F000820F911D020FF3B0F91409F04DC096B09E
:10170000981409F049C029B1271509F045C024C033
:10171000212F30E0A901440F551FF501E40FF51FFB
:10172000608171816115710599F44C0F5D1FDA01BB
:1017300091964D915C919297DA014C912C0F3D1F3F
:10174000D90151962C915197422311F491838083B2
:101750001F5F28851217E0F2892C9F2C2E853F856C
:101760008217930710F2C092B000E092B10020E01F
:101770000FC0E22FF0E0EE0FFF1FEA0DFB1D80818E
:101780009181009721F48E859F85918380832F5FBF
:101790008885281770F305C0F3B096B079B010E0D3
:1017A000D8CFCDB7DEB7EDE00BC4EF92FF920F9329
:1017B0001F93CF93DF93FC019B0100917C0010915C
:1017C0007A00E7B0F8B080917A0086FDFCCF80E027
:1017D0000AC0A82FB0E0AA0FBB1FA20FB31F11961B
:1017E0001C921E928F5F9085891798F397B182A102
:1017F0008095892387B998B182A18095892388B97A
:1018000087E880937A0070E029C0DF01A60FB11D40
:1018100051968C915197806480937C0080917A00DE
:10182000806480937A0080917A0086FDFCCFA62F99
:10183000B0E0AA0FBB1FA20FB31F409178005091D8
:1018400079008D919C911197840F951F11969C930F
:101850008E936F5F80856817C0F27F5F81A17817D4
:1018600010F460E0F7CF40E013C0C42FD0E0CC0FFD
:10187000DD1FC20FD31F61A170E0CB019595879545
:10188000A881B9818A0F9B1F15D3798368834F5F25
:101890008085481750F300937C0010937A00F8B8C5
:1018A000E7B8CDB7DEB7E6E092C3A0E2B0E0EAE584
:1018B000FCE070C38C017B01D42E842F81508230D8
:1018C00010F4C80126DED80150968C9150978823D9
:1018D00071F4C801B70185DEC80107DEBD2DB23045
:1018E000B9F5C801BE016F5F7F4F7BDE0DC0C80137
:1018F000B7015BDFC801F9DDED2DE23049F5C80124
:10190000BE016F5F7F4F51DF60E0AE014F5F5F4F01
:101910001BC0862F90E0880F991FF701E80FF91F71
:10192000840F951FD8011E962D913C911F97DC01C5
:101930008D919C911197281B390B80819181820F89
:10194000931F918380836F5FF8018085681708F388
:10195000A096E7E03BC38F929F92AF92BF92CF9247
:10196000DF92FF920F931F93CF93DF93EC01C62E6C
:10197000072FF42E423011F0FF2051F48C819D810D
:10198000009709F49DC08E819F81009709F498C04B
:101990008F2D8150823050F488819981009709F40D
:1019A0008FC08A819B81009709F48AC0CE016C2D7B
:1019B000702F4F2D7ADFAC2CB02E00E010E0882481
:1019C000992478C08F2D813059F4EA81FB81E00F92
:1019D000F11FC080D180E881F981E00FF11F0DC0B7
:1019E0008C819D81FF2061F4EE81FF81E00FF11F6A
:1019F000C080D180800F911FFC01408151812BC09C
:101A0000800F911FFC0180819181E881F981E00FB5
:101A1000F11F40815181CE84DF848417950710F433
:101A2000A60104C04C0D5D1D481B590BEE81FF81C2
:101A3000E00FF11F80819181EA81FB81E00FF11FAE
:101A400020813181CE84DF848217930720F0C20E7B
:101A5000D31EC81AD90AC41AD50AC1F0F50160818B
:101A6000718180E090E09A0140E050E0621B730BCE
:101A7000840B950B28EE33E040E050E000D2960155
:101A800040E050E060D237FD0AC002C020E030E004
:101A9000F3E0293E3F072CF028EE33E002C020E0BF
:101AA00030E0F501219331935F010894811C911C72
:101AB0000E5F1F4F888590E0881699060CF482CF40
:101AC000DF91CF911F910F91FF90DF90CF90BF904A
:101AD000AF909F908F900895A5E0B0E0E1E7FDE022
:101AE0004EC24C01C62EE72E2D8335DFD401189649
:101AF0004C901897DE2C642D70E080E090E028EE8A
:101B000033E040E050E0BBD169837A838B839C83D0
:101B1000EE24FF2487016624772488249924540125
:101B2000552435C0F6013081218142E0242E312C2C
:101B3000C20CD31CC901492F582F1A012D81222311
:101B400029F088EE93E0821993091C0199EC29167B
:101B500031042CF4A3E32A1631048CF002C055247E
:101B60005394B101882777FD8095982FA80197019C
:101B700086D1860E971EA81EB91E620C731C88EEB5
:101B800093E0A0E0B0E0E80EF91E0A1F1B1F898158
:101B90009A81AB81BC81E816F9060A071B0711F68A
:101BA0005520F1F4552408944108510824EF31E000
:101BB000429EC001439E900D529E900D1124209193
:101BC00013033091140328173907ACF088EE93E023
:101BD000489E9001499E300D589E300D11240DC035
:101BE000930140E050E0C501B4018BD12093130371
:101BF0003093140302C020E030E0C9012596E2E1F1
:101C0000DAC1A7E6B0E0E6E0FEE0B9C18C014B0125
:101C10006A01A6962FAFA697DA018D919C91119734
:101C20000097E1F4F801808590E0880F991F84D334
:101C3000D60111969C938E93009709F4E0C0FC01A5
:101C400080E090E003C0119211920196D80118969D
:101C50002C91189730E082179307ACF3F401808140
:101C60009181009789F0EE24FF245E010894A11C65
:101C7000B11CB1E46B2E712C6C0E7D1EA1E24A2EBC
:101C8000512C4C0E5D1E22C0D80118968C9190E00C
:101C9000880F991F51D3F40191838083009709F431
:101CA000AEC0FC0180E090E0D80107C01E962D91E7
:101CB0003C911F9721933193019618962C91189778
:101CC00030E08217930794F38D01CDCFC801B501A1
:101CD000A6964FADA697E9DDD80118968C91189776
:101CE000E82FF0E0A596FFAFEEAFA5971301F50141
:101CF000A3965FAE4EAEA397930140E050E0A89646
:101D00005FAE4EAEA89737C0E114F10461F0A8961B
:101D1000AEADBFADA8976D917C91119780819181F7
:101D20006817790760F480819181A896AEADBFAD48
:101D3000A89711969C938E93E114F10449F0D90170
:101D40006D917C911197808191818617970728F476
:101D500080819181D9018D939C934F5F5F4F2E5F5E
:101D60003F4F3296A8968EAD9FADA8970296A89643
:101D70009FAF8EAFA897A596AEADBFADA5974A17FA
:101D80005B0714F20894E11CF11CBAE0EB16F104B5
:101D900009F09CCF80E090E02CC0F101419151917D
:101DA0001F01BC01660F771FD601ED91FC911197C1
:101DB000E60FF71F208131812417350710F4518376
:101DC0004083A396EEADFFADA39741915191A396A9
:101DD000FFAFEEAFA397D401ED91FC911197E60F01
:101DE000F71F208131814217530710F4518340833C
:101DF0000196F801208530E08217930774F2C959E3
:101E0000DF4FE2E1D8C01F93CF93DF93EC01162F91
:101E1000862F8150823050F4AE014E5F5F4FCE016D
:101E2000BE0121E0EEDE123019F00BC0662349F44A
:101E3000BE016C5F7F4FAE014A5F5F4FCE0120E075
:101E4000E0DEDF91CF911F910895CF93DF93EC01F6
:101E50008A819B81009709F007D38E819F8100972B
:101E600009F002D388819981009709F0FDD28C8115
:101E70009D81009709F0F8D2DF91CF910895DB01A1
:101E80008F939F93B3D0BF91AF91A29F800D911D6F
:101E9000A39F900DB29F900D11240895991B79E096
:101EA00004C0991F961708F0961B881F7A95C9F7EA
:101EB00080950895AA1BBB1B51E107C0AA1FBB1F39
:101EC000A617B70710F0A61BB70B881F991F5A95C6
:101ED000A9F780959095BC01CD01089597FB072E39
:101EE00016F4009406D077FD08D0E4DF07FC05D097
:101EF0003EF4909581959F4F0895709561957F4F21
:101F00000895A1E21A2EAA1BBB1BFD010DC0AA1F3A
:101F1000BB1FEE1FFF1FA217B307E407F50720F052
:101F2000A21BB30BE40BF50B661F771F881F991FCD
:101F30001A9469F760957095809590959B01AC0116
:101F4000BD01CF010895052E97FB16F400940FD024
:101F500057FD05D0D6DF07FC02D046F408C05095E7
:101F60004095309521953F4F4F4F5F4F0895909585
:101F70008095709561957F4F8F4F9F4F08952F9259
:101F80003F924F925F926F927F928F929F92AF9209
:101F9000BF92CF92DF92EF92FF920F931F93CF9356
:101FA000DF93CDB7DEB7CA1BDB0B0FB6F894DEBFED
:101FB0000FBECDBF09942A88398848885F846E8413
:101FC0007D848C849B84AA84B984C884DF80EE805D
:101FD000FD800C811B81AA81B981CE0FD11D0FB666
:101FE000F894DEBF0FBECDBFED0108950FD0A59FC1
:101FF000900DB49F900DA49F800D911D1124089504
:10200000EE0FFF1F0590F491E02D0994A29FB001FF
:10201000B39FC001A39F700D811D1124911DB29F1C
:10202000700D811D1124911D08955058BB27AA27BA
:102030000ED0E5C0D6D030F0DBD020F031F49F3F99
:1020400011F41EF4CBC00EF4E095E7FBC1C0E92FFC
:10205000E7D080F3BA17620773078407950718F073
:1020600071F49EF5FFC00EF4E0950B2EBA2FA02D53
:102070000B01B90190010C01CA01A0011124FF2735
:10208000591B99F0593F50F4503E68F11A16F04030
:10209000A22F232F342F4427585FF3CF469537952F
:1020A0002795A795F0405395C9F77EF41F16BA0BF4
:1020B000620B730B840BBAF09150A1F0FF0FBB1FA2
:1020C000661F771F881FC2F70EC0BA0F621F731FEB
:1020D000841F48F4879577956795B795F7959E3F48
:1020E00008F0B3CF9395880F08F09927EE0F9795D6
:1020F0008795089504D06894B111B5C0089598D01B
:1021000088F09F5790F0B92F9927B751A0F0D1F0E0
:10211000660F771F881F991F1AF0BA95C9F712C06A
:10212000B13081F09FD0B1E008959CC0672F782F27
:102130008827B85F39F0B93FCCF3869577956795D6
:10214000B395D9F73EF490958095709561957F4F42
:102150008F4F9F4F0895E89409C097FB3EF49095E8
:102160008095709561957F4F8F4F9F4F9923A9F070
:10217000F92F96E9BB279395F695879577956795FF
:10218000B795F111F8CFFAF4BB0F11F460FF1BC043
:102190006F5F7F4F8F4F9F4F16C0882311F096E9D6
:1021A00011C0772321F09EE8872F762F05C0662384
:1021B00071F096E8862F70E060E02AF09A95660F3D
:1021C000771F881FDAF7880F9695879597F90895F6
:1021D00097F99F6780E870E060E008959FEF80ECDA
:1021E000089500240A94161617061806090608957D
:1021F00000240A9412161306140605060895092EE3
:102200000394000C11F4882352F0BB0F40F4BF2B51
:1022100011F460FF04C06F5F7F4F8F4F9F4F089591
:1022200057FD9058440F551F59F05F3F71F0479587
:10223000880F97FB991F61F09F3F79F0879508956C
:10224000121613061406551FF2CF4695F1DF08C08B
:10225000161617061806991FF1CF869571056105A8
:1022600008940895E894BB2766277727CB0197F950
:1022700008950BD0C4CFB5DF28F0BADF18F095234E
:1022800009F0A6CFABCF1124EECFCADFA0F3959F04
:10229000D1F3950F50E0551F629FF001729FBB274D
:1022A000F00DB11D639FAA27F00DB11DAA1F649FF9
:1022B0006627B00DA11D661F829F2227B00DA11DAC
:1022C000621F739FB00DA11D621F839FA00D611D32
:1022D000221F749F3327A00D611D231F849F600D53
:1022E000211D822F762F6A2F11249F5750408AF08C
:1022F000E1F088234AF0EE0FFF1FBB1F661F771F18
:10230000881F91505040A9F79E3F510570F060CF53
:10231000AACF5F3FECF3983EDCF3869577956795FF
:10232000B795F795E7959F5FC1F7FE2B880F911D35
:102330009695879597F90895CF93DF93823091050D
:1023400010F482E090E0E0911903F0911A0320E08C
:1023500030E0A0E0B0E0309739F14081518148177A
:102360005907B8F04817590771F482819381109783
:1023700029F013969C938E9312972CC090931A0376
:102380008093190327C02115310531F042175307F7
:1023900018F0A901DB0101C0EF019A01BD01DF01C5
:1023A0000280F381E02DD7CF21153105F9F0281BEC
:1023B000390B2430310580F48A819B8161157105C8
:1023C00021F0FB019383828304C090931A038093CE
:1023D0001903FE01329644C0FE01E20FF31F819300
:1023E000919322503109398328833AC020911703F1
:1023F00030911803232B41F420914B0230914C0271
:1024000030931803209317032091490230914A0218
:102410002115310541F42DB73EB740914D02509141
:102420004E02241B350BE0911703F0911803E217BD
:10243000F307A0F42E1B3F0B2817390778F0AC01E7
:102440004E5F5F4F2417350748F04E0F5F1F5093C4
:102450001803409317038193919302C0E0E0F0E0EA
:10246000CF01DF91CF910895CF93DF93009709F4C7
:1024700087C0FC01329713821282C0911903D09158
:102480001A03209781F420813181280F391F809110
:102490001703909118038217930779F5F0931803A7
:1024A000E09317036DC0DE0120E030E0AE17BF07F8
:1024B00050F412964D915C9113979D014115510571
:1024C00009F1DA01F3CFB383A28340815181840FF4
:1024D000951F8A179B0771F48D919C911197840F1A
:1024E000951F02969183808312968D919C911397EC
:1024F000938382832115310529F4F0931A03E09325
:1025000019033EC0D9011396FC93EE9312974D9197
:102510005D91A40FB51FEA17FB0779F480819181C3
:10252000840F951F0296D90111969C938E938281F8
:10253000938113969C938E931297E0E0F0E08A814A
:102540009B81009719F0FE01EC01F9CFCE010296B4
:1025500028813981820F931F20911703309118032E
:102560002817390769F4309729F410921A0310924A
:10257000190302C013821282D0931803C093170369
:10258000DF91CF91089510E0CAEAD0E003C0FE01C8
:0E25900039DD2296CC3AD107D1F7F894FFCF6F
:10259E0001640019007D007D007D007D007D00FA44
:1025AE0000FA00FA00FA00FA0077017D00FA0077CF
:1025BE0001FA00FA007D00FA00A700A700A700FAB2
:1025CE00007D007D007D00FA007D007D00770177A3
:1025DE00017D00FA007701FA00FA007D00FA00A7EB
:1025EE0000A700A700FA007D007D007D00FA007DA7
:1025FE00007D007701FA007D007D007D00FA007DF0
:10260E00007D007D007D007D007D007D007D007DD4
:10261E0000FA007D007D007D00FA007D007D00C87F
:10262E0000320064001900F401FA007D007D007D87
:10263E0000FA007D007D007D007D007D007D007D27
:10264E00007D007D00FA00FA007D007701F4014064
:10265E00FF40FF40FF3C4043FF37FF3C37FF34391C
:10266E003B3A39374043454143FF403C3E3B3C37C4
:10267E00FF34393B3A39374043454143FF403C3EF6
:10268E003BFF4342413F40FF38393CFF393C3EFF60
:10269E004342413F40FF48FF48FF48FF4342413F0E
:1026AE0040FF38393CFF393C3EFF3FFF3E3C88132C
:1026BE0001040400D007F4010F009C01B501CF0105
:1026CE00EA0107022602470269028E02B502DE0205
:1026DE000A0302080E0F10111200001B0320002027
:1026EE000000010203040506FF6D5600507265736B
:1026FE0073204200536574204D61780053706565F8
:10270E006421212100537065656400412D20422013
:10271E00432B0047657400526561647921212100C5
:10272E00476F21005065206E610054616275612112
:04273E002121000055
:00000001FF
